:020000040800F2
:10000000F02300209D010008D97B00084D5800080E
:10001000D57B000851280008C590000800000000AA
:10002000000000000000000000000000C97D000882
:100030009128000800000000DD7B0008C18800084E
:10004000B7010008B7010008B7010008B7010008B0
:10005000B7010008B7010008B7010008B7010008A0
:10006000B7010008B7010008B7010008B701000890
:1000700055280008B701000861280008B7010008EA
:10008000B7010008B7010008B9130008B70100085C
:10009000B7010008B7010008B7010008B701000860
:1000A000B7010008B7010008B7010008B701000850
:1000B0001D890008B7010008B7010008B701000852
:1000C000B7010008B7010008B7010008A57D0008C6
:1000D000B17D0008B7010008B7010008B990000819
:1000E000B7010008E17B0008B7010008B70100086C
:1000F000B7010008B7010008B7010008B701000800
:10010000B7010008B7010008B7010008B7010008EF
:10011000B7010008B7010008B7010008B7010008DF
:100120006D280008B701000879280008B701000809
:1001300085280008B7010008B7010008B7010008CA
:10014000B7010008B7010008B7010008B7010008AF
:10015000B7010008B7010008B7010008B70100089F
:10016000B7010008B7010008B7010008B70100088F
:10017000B7010008B7010008B7010008000000003F
:10018000B7010008B7010008DFF80CD001F0FAF859
:1001900000480047C9900008F02300200648804727
:1001A00006480047FEE7FEE7FEE7FEE7FEE7FEE75C
:1001B000FEE7FEE7FEE7FEE7C588000889010008C4
:1001C0009FED3D0A5FEA920C57D000BFD0ED000AC8
:1001D00090ED011A0B1D60EEA00A083041EE010AF5
:1001E000F5EEC00AF1EE10FAA6BFB1EEE01A81ED0D
:1001F000001A81ED000AD0ED000A90ED011A191DD8
:1002000060EEA00A083041EE010AF5EEC00AF1EEF8
:1002100010FAA6BFB1EEE01A83ED001A83ED000AD2
:10022000D0ED000A90ED011A0B1D60EEA00A083017
:1002300041EE010AF5EEC00AF1EE10FAA6BFB1EEEA
:10024000E01A81ED001A81ED000A90ED001AD0ED60
:10025000010A191D21EE011A083000EEA01AB5EEB0
:10026000C01AF1EE10FAA6BFF1EEC10AC3ED000A02
:1002700083ED000ABCF1010CA8D112F0030208BF03
:10028000704700BFD0ED000A90ED011A0B4660EEFA
:10029000A00A091D083041EE010AF5EEC00AF1EE90
:1002A00010FAA6BFB1EEE01A83ED001A83ED000A42
:1002B000521EE7D170470000000000002DE9F00F4A
:1002C0005FEA510C32D0044600EBCC051646674677
:1002D000D4ED012A95ED012AD4ED001A95ED001A0E
:1002E00032EEC20A32EE222A71EEC10AD6ED003A8F
:1002F000D6ED012A31EE811A23EEA03A22EE804A91
:1003000023EE800A62EEA00A84ED001A33EE041A8E
:1003100084ED012A30EE600A85ED001A083485ED7F
:10032000010A083506EBC3067F1ED1D14FF6FF7ACE
:100330000AEA430BE146BCF1020F44D966464FF08E
:1003400000084FEA5C0C444602EBC803D84493ED26
:10035000001AD3ED010A234603EB0C0700EBC3059B
:1003600000EBC707D5ED001A97ED000A95ED012ABD
:10037000D7ED012A31EE803A31EEC00A72EE621AF0
:1003800072EE822A85ED003A20EE012A61EEA03A53
:1003900061EE811A20EE200AC5ED012A32EE232AF1
:1003A000334431EEC00A87ED002A8B4287ED010A03
:1003B000D2D3641CA445C7D84FEA59090AEA4B0BAB
:1003C000B9F1020FBAD8002919BF491C5FEA5101DF
:1003D000BDE8F00F704700BF90ED002AD0ED021A83
:1003E00090ED011AD0ED032A32EE610A72EE211A65
:1003F00071EE620A32EE811AC0ED001A80ED011A28
:1004000080ED020AC0ED030A1030491EE4D1BDE8B8
:10041000F00F70472DE9F00F5FEA5109CC4633D059
:10042000044600EBCC0516464FEA090794ED002A76
:10043000D5ED001A94ED013AD5ED012A72EE610A6C
:10044000D6ED004A33EE621AD6ED013A72EE832AF7
:1004500024EEA03A23EE814A72EE211A24EE811A8C
:1004600063EEA00AC4ED001A73EE441AC4ED012A2B
:1004700071EE200AC5ED001A0834C5ED010A0835F1
:1004800006EBC3067F1ED1D14FF6FF7A0AEA430B73
:10049000B9F1020F45D967464FF000084FEA5C0CEE
:1004A0004FEA080502EBC803D844D3ED001A93EDD8
:1004B000011A2B4603EB0C0400EBC30600EBC4044B
:1004C00096ED002AD4ED000A96ED013AD4ED012A0A
:1004D00072EE203A72EE600A33EE622A32EE834AFE
:1004E000C6ED003A60EEA12A22EE013A22EE212A60
:1004F00060EE810A86ED014A72EEC32A3B4472EE39
:10050000200AC4ED002A8B42C4ED010AD2D36D1C2F
:10051000AC45C7D84FEA59090AEA4B0BB9F1020FAB
:10052000B9D8002919BF491C5FEA5101BDE8F00F95
:10053000704700BFD0ED002A90ED022A90ED031A1B
:1005400090ED013A72EEC20A32EE822A60EE801A13
:1005500071EE030A33EE411A22EE002A60EE800AA1
:1005600021EE001A80ED002AC0ED010AC0ED021A4A
:1005700080ED031A1030491EDCD1BDE8F00F704742
:1005800070B504460D4680782188A38962680128E9
:100590000ED02846FFF792FEE078012818BF70BD04
:1005A000E28921882846A368BDE8704000F0EEB9D2
:1005B00094ED040A2846FFF72DFFEDE710B4018003
:1005C000384C446082704FF0000CC370B1F5807FEE
:1005D0003AD008DC102959D020294DD0402943D0E9
:1005E000802939D00BE0B1F5007F25D0B1F5806FBF
:1005F0001AD0B1F5006F0FD0B1F5805F04D04FF085
:10060000FF3C10BC6046704701218181C1812649B1
:100610009FED260A816036E002218181C181244953
:100620009FED240A81602EE004218181C18122494D
:100630009FED220A816026E008218181C181204945
:100640009FED200A81601EE010218181C1811E4939
:100650009FED1E0A816016E020218181C1811C4925
:100660009FED1C0A81600EE040218181C1811A4901
:100670009FED1A0A816006E080218181C1811849BD
:100680009FED180A816080ED040ABAE74FF480718B
:100690008181C18114499FED150A816080ED040AB2
:1006A000AFE70000C0AC0008C0A40008000080391B
:1006B000C2A400080000003AC6A400080000803A66
:1006C000CEA400080000003BDEA400080000803B30
:1006D000FEA400080000003C3EA500080000803C8D
:1006E000BEA500080000003DBEA600080000803D39
:1006F00070B44FF0000CB0EC010A4E1E6446B50811
:1007000031D000BFD0ED000A90ED011A0830B4EEF0
:10071000E00AF1EE10FA3CBFB0EE600A0CF1010401
:10072000F0EC010AB4EEC10AF1EE10FA3CBFB0EEF3
:10073000410A0CF10204B0EC011AB4EEE00AF1EE49
:1007400010FA3CBFB0EE600A0CF10304B4EEC10A2B
:10075000F1EE10FA3CBFB0EE410A0CF104046D1E3C
:100760000CF1040CCED106F0030C5FEA0C0617D096
:10077000B6F1004F19D2002EC8BF002510DD00BF12
:10078000D0ED000AF4EEC00AF1EE10FA04DD4C19C7
:10079000B0EE600AA4EB0C04001D6D1C761EEFD1B8
:1007A00082ED000A1C6070BC7047F0EC010AB4EEE8
:1007B000E00AF1EE10FA3CBFB0EE600AA1EB0C04C7
:1007C000BCF1010CF1D1EBE770B44FF0000CB0ECD0
:1007D000010A4E1E6446B50831D000BFD0ED000AB4
:1007E00090ED011A0830B4EEE00AF1EE10FAC4BF41
:1007F000B0EE600A0CF10104F0EC010AB4EEC10A9B
:10080000F1EE10FAC4BFB0EE410A0CF10204B0ECF4
:10081000011AB4EEE00AF1EE10FAC4BFB0EE600ABD
:100820000CF10304B4EEC10AF1EE10FAC4BFB0EE4D
:10083000410A0CF104046D1E0CF1040CCED106F03B
:10084000030C5FEA0C0617D0B6F1004F19D2002E48
:10085000C8BF002510DD00BFD0ED000AF4EEC00ACD
:10086000F1EE10FA04D24C19B0EE600AA4EB0C04BD
:10087000001D6D1C761EEFD182ED000A1C6070BC5D
:100880007047F0EC010AB4EEE00AF1EE10FAC4BFD2
:10089000B0EE600AA1EB0C04BCF1010CF1D1EBE766
:1008A0009FED391A10B4B0EE410A5FEA910C1ED0E8
:1008B000BCF1004F4CD2BCF1000FC4BF03466446EC
:1008C00015DD00BFD3ED000A00EEA00AD3ED010A4A
:1008D00000EEA00AD3ED020A00EEA00AD3ED030A4F
:1008E0001033641E00EEA00AECD100EB0C1011F0E6
:1008F00003031AD0B3F1004F3FD2002B15DD001FC8
:1009000013F0010F04D0D0ED010A001D00EEA00A83
:100910005B080AD0D0ED010A00EEA00AD0ED020A71
:1009200008305B1E00EEA00AF4D100EE901AF8EE3B
:10093000601AC0EE210AF5EEC00AF1EE10FAA6BF69
:10094000B1EEE00A82ED000A82ED001A10BC704799
:10095000D0ED000A00EEA00AD0ED010A00EEA00AD8
:10096000D0ED020A00EEA00AD0ED030A1030BCF16F
:10097000010C00EEA00AEBD1B9E7F0EC010A5B1E16
:1009800000EEA00AF9D1D0E7000000002DE9F00147
:100990004E0801244FF0000C04EB51076146A6F10C
:1009A00002082CE061452AD200EBCC0500EBC10423
:1009B000D5ED000A94ED000AC4ED000A85ED000AA9
:1009C000D5ED010A94ED010AC4ED010A85ED010A95
:1009D000CC1900EBC4050CEB070400EBC40495ED47
:1009E000000AD4ED000AC5ED000A84ED000AD4ED3A
:1009F000010A95ED010AC5ED010A84ED010A00EB3B
:100A0000C104B44400EBCC0C94ED020ADCED000A06
:100A1000891CC4ED020A8CED000ADCED010A94ED9C
:100A2000030AC4ED030A8CED010AB3F800C089B2D1
:100A300003EB42034145B5D9BDE8F00170472DE90C
:100A4000F0074D0801244FF0000C04EB51066146FD
:100A5000A5F102082BE0614529D250F8314050F849
:100A60003C7040F8317040F83C4000EBC10900EBAD
:100A7000CC04D9F80470D4F804A0C9F804A06760C5
:100A80008C190CEB060750F8349050F837A040F85A
:100A900034A040F8379000EBC40400EBC707D4F84B
:100AA0000490D7F804A0C4F804A0C7F8049000EBA1
:100AB000C104AC44A76850F83C90C4F8089040F8D2
:100AC0003C7000EBCC0CE768DCF80490C4F80C90A8
:100AD000CCF80470B3F800C0891C03EB4203414515
:100AE000B9D9BDE8F00770472DE9F00F01244F0890
:100AF00004EB51084FF0000C7C0804BFBDE8F00F78
:100B00007047014600EB8805002614E0BCEB460F59
:100B100011D950F82CA0D1F80090C1F800A040F8ED
:100B20002C900CEB0809D5F800A050F829B0C5F8B6
:100B300000B040F829A0BC4451F8049F50F82CA004
:100B400041F804AB40F82C90B3F800C003EB42032B
:100B5000641E05F1080506F10106D7D1BDE8F00FC6
:100B600070472DE9F05F0546002092469B46884677
:100B70000646814640241BE0284641464746224619
:100B800000F0A0FA53465A46C01A914110D31146BC
:100B90001846224600F087FA2D1A67EB01084F46E7
:100BA00022460120002100F07EFA17EB00094E4199
:100BB000201EA4F10104DFDC484631462A464346A4
:100BC000BDE8F09F40EA01039B0703D009E008C994
:100BD000121F08C0042AFAD203E011F8013B00F802
:100BE000013B521EF9D27047421C10F8011B00292C
:100BF000FBD1801A70472DE9FE4F804681EA030041
:100C0000C00F0C46009021F0004123F00045B8EBE6
:100C10000200A94105D24046214690461C460B469B
:100C2000024623F00040104347D0270DC7F30A00C7
:100C3000C3F30A510290401A019040286BDAC3F3C3
:100C4000130040F4801B0098924620B10023D2EBA1
:100C5000030A63EB0B0B01985946C0F14002504662
:100C600000F021FA06460D4650465946019A00F01A
:100C700039FA10EB08006141002487EA115284EA36
:100C8000E7731A4340D0009A62B3019A012A4FEAEF
:100C9000075215DC001B61EB02014FF0004202EA33
:100CA0000752CDE90042001C41F5801132462B4627
:100CB00000F070FA03B0BDE8F08F40462146F9E736
:100CC000001B61EB0201001C41F5801300185B4121
:100CD0002018A2F5001747EB030140EAD570B619BA
:100CE0006D4111E06D084FEA360645EAC0754FEADE
:100CF0000752001B61EB0201001C41F580114908FD
:100D00004FEA30000019514132462B4603B0BDE88E
:100D1000F04F00F030BA0098012240000023D0EBE1
:100D2000020263EBE073009821464FEAE074B8EBEF
:100D3000000061EB0401E9E783F000435BE781F029
:100D4000004158E72DE9FE4F81EA030404F0004416
:100D500021F0004100944FF0000B23F0004350EAD3
:100D600001045ED052EA03045BD0C3F30A54C1F31A
:100D70000A552C44A4F2F3340194A0FB0254C1F3AD
:100D8000130141F48011C3F3130343F4801301FBF7
:100D9000024400FB034E840A970A44EA815447EA5E
:100DA0008357A4FB076802958D0A05FB07854FEA68
:100DB000932C04FB0C542705029D4FEA065847EA82
:100DC0001637B5EB08056EEB070C870E920E47EA57
:100DD000811742EA8312A7FB0201B6EB0B0164EB19
:100DE00000042B0D43EA0C335E1844EB1C50DA462A
:100DF0005146E7FB0201C5F313044FEA0B3343EA04
:100E000014534FEA0432019C43EA0603A4F10C0494
:100E10000294009CCDE900B400F0BCF903B0BDE839
:100E2000F08F00200146F9E72DE9F04D81EA030437
:100E300004F0004B21F0004514464FF0000A23F067
:100E4000004150EA050220D054EA01021DD0C5F34A
:100E50000A570246C5F31303C1F31300C1F30A5640
:100E600040F4801543F48013A7EB0608101BD64608
:100E700008F2FD3873EB050002D308F1010801E028
:100E800092185B41B8F1000F03DA00200146BDE87B
:100E9000F08D00204FF48011064684460EE0171BAB
:100EA00073EB050705D3121B63EB050306434CEAFE
:100EB000010C49084FEA300092185B4150EA0107E3
:100EC000EDD152EA030012D082EA040083EA050160
:100ED000084305D0101BAB4106D20122002306E0D7
:100EE00000224FF0004302E06FF0010253101AEBB2
:100EF00006004CEB085110EB0A0041EB0B01BDE87A
:100F0000F04D00F038B930B5041E71F1000404DB77
:100F10004FF00044404264EB0101141E73F10004E1
:100F200005DB1C464FF00043524263EB0403801A7A
:100F3000994101D3012030BD002030BD30B5041EE1
:100F400071F1000404DB4FF00044404264EB010106
:100F5000141E73F1000405DB1C464FF0004352429F
:100F600063EB0403101A8B4101D2012030BD002035
:100F700030BD30B5041E71F1000404DB4FF00044B5
:100F8000404264EB0101141E73F1000405DB1C46B2
:100F90004FF00043524263EB0403101A8B4101D31C
:100FA000012030BD002030BD30B5041E71F10004B9
:100FB00004DB4FF00044404264EB0101141E73F166
:100FC000000405DB1C464FF00043524263EB040370
:100FD000801A994101D2012030BD002030BD70B58A
:100FE000C1F30A5201F000450024C1F3130140F29D
:100FF000FF3341F480119A4201DA002070BD40F2C3
:1010000033439A42A2F2334203DC524200F05AF8D0
:1010100000E090402C43F1D0404270BD00F000420F
:1010200030F000400AD0C10D01F56071C0F3160028
:1010300042EA0151C20840071143704700200146AF
:10104000704701F0004330B421F0004150EA010242
:1010500006D00A0DA2F56072C1F31301002A02DC6A
:1010600030BC00207047440F44EAC104C100E018BE
:1010700030BC00EBC25000F047B830B50B4601461B
:1010800000202022012409E021FA02F59D4205D327
:1010900003FA02F5491B04FA02F52844151EA2F1D1
:1010A0000102F1DC30BD202A04DB203A00FA02F113
:1010B000002070479140C2F1200320FA03F3194346
:1010C00090407047202A04DB203A21FA02F00021E8
:1010D000704721FA02F3D040C2F120029140084348
:1010E00019467047202A06DBCB17203A41FA02F056
:1010F00043EAE07306E041FA02F3D040C2F1200275
:1011000091400843194670470029A8BF7047401C0A
:10111000490008BF20F00100704710B4B0FA80FC0D
:1011200000FA0CF050EA010404BF10BC704749B14A
:10113000CCF1200421FA04F411FA0CF118BF0121BA
:1011400021430843A3EB0C01CB1D4FEA00614FEA9A
:10115000102042BF002010BC704700EBC350104469
:101160000029A4BF10BC7047401C490008BF20F0F4
:10117000010010BC704710B5141E73F1000408DAAA
:10118000401C41F1000192185B411A4301D120F04B
:10119000010010BD2DE9F04D92469B4611B1B1FA08
:1011A00081F202E0B0FA80F220329046FFF77BFF36
:1011B00004460F4640EA0A0041EA0B0153465A46EC
:1011C000084313D0114653EA010019D0C8F1400278
:1011D0005046FFF777FF05460E46504659464246B1
:1011E000FFF761FF084305D0012004E0204639469F
:1011F000BDE8F08D0020054346EAE0762C433743F6
:101200000A986305E40AA0EB08000022FD0A44EAFC
:1012100047540A3002D500200146E9E701051019BC
:101220006941DDE9084500196941BDE8F04DA2E7D3
:101230002DE9F04D00231A461B1A8A4103DB0020DA
:101240000146BDE8F08DC1F30A52C1F3130141F428
:1012500080154FF0000BD10702D100186D41521ECE
:101260000027044640F2FF11384601EB620A3E4671
:101270008046024600204FF48011FFF723FFC21979
:101280007141BB1846EB0100B4EB030C75EB000C8D
:1012900004D3E41A65EB000517460E46241908F13D
:1012A00001006D4180463428E3DDF91946EB060064
:1012B000091BA84103D24FF0FF32134601E0002280
:1012C00013461BEB070046EB0A51BDE8F04DFFF754
:1012D00052BF0EB5C10F80EAE0700844CA07002172
:1012E00040F233438DE80E000A460B46FFF752FFEB
:1012F00003B000BDC1F30A52C1F3130140F2FF3342
:1013000041F480119A4202DA00200146704740F20F
:1013100033439A42A2F2334202DC5242FFF7D2BE7A
:10132000FFF7C1BE30B5041E71F1000404DB4FF0BD
:101330000044404264EB0101141E73F1000405DB1C
:101340001C464FF00043524263EB04038B4208BF3C
:10135000824230BD30B5041E71F1000404DB4FF051
:101360000044404264EB0101141E73F1000405DBEC
:101370001C464FF00043524263EB0403994208BFFE
:10138000904230BD1CB509480090094801900546BF
:10139000009C06E0E06840F0010394E807009847ED
:1013A0001034AC42F6D3FEF7F3FE00001033010810
:1013B00030330108000000002DE9F04F81B02DED21
:1013C000088B8AB041F24075C2F20005284601F050
:1013D00011FB41F28874C2F20004204601F00AFBBE
:1013E00041F2D076C2F20006304601F003FB3046EF
:1013F00001F0FCFA00EE100A41F66436B8EE400A3D
:10140000C2F20006284686ED000A01F0EFFA41F626
:101410006037C2F2000700EE100A96ED001A386835
:1014200041F67035B8EE400AC2F2000530EE410ACE
:1014300005EB800080ED000A204601F0D7FA00EEAF
:10144000100A96ED001A386841F67441B8EE400A69
:10145000C2F2000141F2344330EE410A01EB800157
:10146000C2F2000381ED000A03EBC001C20081ED6E
:10147000000A111D55F8202040F2A0750026C2F286
:1014800000055E506E5040F21001C2F20001096882
:1014900045F83020013088423860C0F0678240F65D
:1014A000B454C2F2000420464021002201233E60D1
:1014B000FFF784F8204641F23444C2F2000421468A
:1014C000FFF75EF840F65041C2F20001204640228C
:1014D000FEF776FE9FED010A02E000BF000000006B
:1014E00041F23440C2F20000304490ED021A90ED17
:1014F000032A90ED043A21EE011A90ED054A31EEEF
:10150000000A22EE021A90ED065A31EE000A23EE8E
:10151000031A90ED076A31EE000A24EE041A90EDEA
:10152000087A31EE000A25EE051AD0ED090A31EEEF
:10153000000A26EE061A31EE000A27EE071A31EEEF
:10154000000A20EEA01A31EE000A90ED0A1A90ED82
:101550000B2A90ED0C3A21EE011A90ED0D4A31EE76
:10156000000A22EE021A90ED0E5A31EE000A23EE26
:10157000031A31EE000A24EE041A31EE000A25EEB9
:10158000051A3436B6F5827F31EE000AA8D141F251
:1015900038679FEDF98AC2F2000740F2200087ED1C
:1015A0000B0AC2F20000432120EE080A0024016069
:1015B00010EE100A7C62FFF731FD41EC100B08F0D1
:1015C00027FA51EC100B9FEDEE0B58EC106B3246E6
:1015D0004346FFF7B7FBFFF734FD386040F6B457DA
:1015E000C2F200073846402100220123FEF7E6FF41
:1015F00038462946FEF7C4FF40F65031C2F20001DA
:1016000028464022FEF7DCFD9FEDE90A281990EDFF
:10161000021A90ED032A90ED043A21EE011A90EDA2
:10162000054A31EE000A22EE021A90ED065A31EE1A
:10163000000A23EE031A90ED076A31EE000A24EE49
:10164000041A90ED087A31EE000A25EE051AD0ED65
:10165000090A31EE000A26EE061A31EE000A27EEDC
:10166000071A31EE000A20EEA01A31EE000A90EDC2
:101670000A1A90ED0B2A90ED0C3A21EE011A90ED2A
:101680000D4A31EE000A22EE021A90ED0E5A31EEAA
:10169000000A23EE031A31EE000A24EE041A31EE9A
:1016A000000A25EE051A3434B4F5827F31EE000AC3
:1016B000ACD140F6A414C2F200040020606240F2F3
:1016C000240084ED0B0AC2F20000432120EE080A38
:1016D000016010EE100AFFF7A1FC41EC100B08F0BE
:1016E00097F951EC100B32464346FFF72BFBFFF7FF
:1016F000A8FC206040F2A040C2F20000A0F1080463
:1017000041F234209FEDA00BC2F20000A0F10806C8
:1017100051EC100B9FED9E0BCDE900109FED9E1B31
:101720009FEDA3AA51EC100B9FED9D8B9FED9E9B0F
:10173000DDE90098083DCDE9081051EC110B6FF080
:101740000707CDE9061000BFD5E904010591FFF7B1
:1017500065FC42464B46FFF767FBDDE90832FFF7C1
:101760004AFADDE90632FFF75FFBFFF76AFC0BEE92
:10177000100A206141F234400837C2F200003844B8
:10178000D0E902010491FFF749FC42464B46FFF7BE
:101790004BFB53EC182BCDE90223FFF72CFA5AEC44
:1017A00019BB5A465346FFF73FFBFFF74AFC00EED2
:1017B000100A306105982BEE000A3AEE00AAFFF7F6
:1017C0002DFC42464B46FFF72FFBDDE90832FFF7C1
:1017D00012FADDE90632FFF727FBFFF732FC0BEECA
:1017E000100A60610498FFF719FC42464B46FFF768
:1017F0001BFBDDE90223FFF7FEF95A465346FFF7CC
:1018000013FBFFF71EFC00EE100A2BEE000A7061BE
:101810003AEE00AA08340835E82F06F1080693D1FD
:1018200041F67850C2F200003E21016040F298106B
:1018300040F21007C2F200000021C2F2000741F698
:101840006C344161396880ED04AA41F67440C2F2FB
:101850000004C2F200002246FFF722F841F234658C
:10186000396840F65040C2F20005C2F200002A4634
:10187000FFF716F895ED003A41F238629FED4D1AE8
:10188000B4EE008AC2F2000294ED000A9FED4A2AEB
:1018900023EE083A92ED004A33EE013A30EE010AA7
:1018A00083EE023A34EE011A81EE021A80EE020A49
:1018B00041F23C70C2F2000041F6683441F23876E1
:1018C0003968C2F20004C2F2000680ED003A41F627
:1018D000703082ED0A1AC2F20000224686ED000A3C
:1018E000FEF7DEFF40F6A015396840F65030C2F230
:1018F0000005C2F200002A46FEF7D2FF94ED000A6E
:101900009FED2E1A95ED003A9FED2D2A9FED2D4A61
:1019100030EE010A23EE083A40F6A41180EE020AE6
:1019200033EE043A9FED284AC2F2000191ED005ACD
:1019300083EE043A35EE011A81EE021A40F6A42035
:10194000C2F2000096ED002A80ED000A40F6A820C1
:10195000C2F2000020EE020A80ED003A40F6C850C4
:10196000C2F2000081ED0A1A80ED000A0AB0BDEC57
:10197000088B01B0BDE8F08F0000003D00BF00BF44
:10198000000000000000C03FCD3B7F669EA04640A7
:10199000000000A0DD7413C0000000406BB96F4070
:1019A00000000080A6D0B9BF00000080AC4B124000
:1019B000000000003485CEBD645D9240EDA69BC062
:1019C0005ACB7D43F3E9B23F189C7E4300000000F0
:1019D0002DE9F04F81B02DED068BA0B040F6D05927
:1019E000C2F2000999ED020B51EC100B02460B46B6
:1019F000FFF701F99FEDFC0B53EC102BFFF714FAE6
:101A00009FEDFB0B56EC107B3A463346FFF7F3F89D
:101A1000804641EC100B40F2200099ED061BC2F20B
:101A20000000049180ED120B054651EC110B0246AB
:101A30000B46FFF7E0F89FEDF00B53EC102BFFF790
:101A4000F3F93A463346FFF7D6F899ED0A1B834679
:101A50000C4641EC100B079151EC110B02460B4662
:101A600085ED140BFFF7C7F89FEDE50B53EC102B3A
:101A7000FFF7DAF93A463346FFF7BDF899ED0E1B4A
:101A800006900B9141EC100B51EC110B02460B46EA
:101A900085ED160BFFF7AFF89FEDDB0B53EC102B2A
:101AA000FFF7C2F93A46334601970096FFF7A3F8CD
:101AB00099ED121B0A90089141EC100B51EC110B9F
:101AC00002460B4685ED180BFFF795F89FEDD00BFE
:101AD00053EC102BFFF7A8F93A463346FFF78BF883
:101AE00041EC100B099085ED1A0B9FEDCB0B8A464C
:101AF000029153EC102B58462146CDF814B0FFF755
:101B000021F904469FEDC60BC146CDF80C80404636
:101B1000DDF810800D4653EC102B4146FFF712F90B
:101B200022462B46FFF767F89FEDBF0B069F0B9EE3
:101B300004460D4653EC102B38463146FFF702F9A8
:101B400022462B46FFF757F89FEDB90B04460D468A
:101B50000A98089953EC102BFFF7F4F822462B460D
:101B6000FFF749F89FEDB40B044609980D4653EC76
:101B7000102B5146FFF7E6F822462B46FFF73BF8BD
:101B80009FEDAF0B53EC102BFFF735F841EC180B22
:101B900040F6B0209FEDAC0BC2F20000079980ED3B
:101BA000008B53EC102B5846FFF7CCF89FEDA80B99
:101BB00004460D4653EC102B48464146FFF7C2F849
:101BC00022462B46FFF717F89FEDA30B04460D4660
:101BD00053EC102B38463146FFF7B4F822462B461B
:101BE000FFF709F89FED9E0BDDF828A0DDF820B087
:101BF00004460D4653EC102B50465946FFF7A2F809
:101C000022462B46FEF7F7FF9FED970BDDF8248069
:101C1000029F04460D4653EC102B40463946FFF711
:101C200091F822462B46FEF7E6FF9FED910B53EC11
:101C3000102BFEF7E0FF41EC100B40F6B020C2F293
:101C4000000080ED020B9FED8C0BDDF81C900598D9
:101C500053EC102B4946FFF775F89FED890B039E57
:101C60000D460499044653EC102B3046FFF76AF8F2
:101C700022462B46FEF7BFFF9FED830B04460D4621
:101C800006980B9953EC102BFFF75CF822462B4675
:101C9000FEF7B1FF9FED7E0B04460D4653EC102B73
:101CA00050465946FFF74EF822462B46FEF7A3FF53
:101CB0009FED790B04460D4653EC102B40463946F8
:101CC000FFF740F822462B46FEF795FF9FED740B79
:101CD00053EC102BFEF78FFF41EC100B40F6B020B9
:101CE000C2F2000080ED040B9FED6F0B059853ECE2
:101CF000102B4946FFF726F89FED6D0BDDF810A07D
:101D000004460D4653EC102B30465146FFF71AF8A7
:101D100022462B46FEF76FFF9FED670BDDF818801C
:101D20000D460B99044653EC102B4046FFF70AF87A
:101D300022462B46FEF75FFF9FED610BDDF828B0D2
:101D40000D460899044653EC102B5846FEF7FAFF4F
:101D500022462B46FEF74FFF9FED5B0BDDF82490EC
:101D600004460D4653EC102B48463946FEF7EAFF71
:101D700022462B46FEF73FFF9FED550B53EC102BF1
:101D8000FEF739FF41EC100B40F6B020C2F2000024
:101D900080ED060B9FED500B059E079953EC102B21
:101DA0003046FEF7CFFF9FED4E0B044603980D46DD
:101DB00053EC102B5146FEF7C5FF22462B46FEF78B
:101DC0001AFF9FED490B0D460B99044653EC102B5F
:101DD0004046FEF7B7FF22462B46FEF70CFF00F009
:101DE0000FB900BF00BF00BFB30C71AC8BDBE03F8D
:101DF000000000000000F0BFC0EC9E3C2CD4CA3FA5
:101E00006DC5FEB27BF2C03F27A089B0E1E9B53FC6
:101E100042CF66D5E76ABB3F43AD69DE710A1F401A
:101E2000BDE3141DC9C52840D42B6519E258E2BF93
:101E30002BFBAE08FEB7E03F6519E25817B7D7BFD6
:101E4000E3C798BB96D01A40BA6B09F9A0A7264001
:101E5000ACADD85F76F74440772D211FF41C33C01A
:101E6000E4839ECDAA6F28C001DE02098A7F2C4040
:101E700083C0CAA145A643C0637FD93D799830404D
:101E8000C4B12E6EA34110C0EFC9C342ADE90940F1
:101E9000744694F606DF01403D2CD49AE69D02403C
:101EA0009CA223B9FC8715408126C286A707404023
:101EB000CDCCCCCCCCCC0040973C9E961FB8AABFD2
:101EC00061C5A9D6C22CB83F3D9AEAC9FCA3AFBFF1
:101ED00077BE9F1A2F75424008AC1C5A64BB1AC0CB
:101EE000705F07CE190D594054E3A59BC4084AC042
:101EF0008351499D80263EC082734694F6563E40EB
:101F00000AD7A3703D8A2F40226C787AA5AC12C004
:101F1000508D976E126330C0C4B12E6EA301FD3F89
:101F200012312592E865DA3FF27B9BFEEC47E53FF4
:101F3000B7627FD93DD929C024287E8CB9AB12C0A5
:101F4000E10B93A982312EC05396218E7571F93F12
:101F500044696FF085C9D23FD4B7CCE9B298E33F6A
:101F60004772F90FE99727C0933A014D848D1740C6
:101F700074B515FBCBAE22406397A8DE1AD8D8BF44
:101F80002B6A300DC347DA3F82AD122C0E67D2BFE9
:101F900055C1A8A44EC01F40CCEEC9C3424D21403C
:101FA000E8D9ACFA5CCD2E40BB270F0BB576494083
:101FB00018265305A3D23940C3F5285C8FAA42C026
:101FC00011363CBD52F624C01F85EB51B81EBD3FF3
:101FD000FE65F7E461A109C0BEC11726534521C0C3
:101FE000A54E401361430540933A014D848D2C402A
:101FF00052499D8026023940000000000000F03F59
:102000001FED450B0D460899044653EC102B58461E
:10201000FEF798FE22462B46FEF7EDFD1FED4A0B1C
:1020200004460D4653EC102B48463946FEF78AFE0F
:1020300022462B46FEF7DFFD1FED4F0B53EC102B16
:10204000FEF7D9FD41EC100B40F6B020C2F20000C3
:1020500080ED080B1FED540B079F53EC102B3046FF
:102060003946B146FEF76EFE1FED570BDDF80C80CA
:1020700004460D4653EC102B40465146D346FEF71E
:1020800061FE22462B46FEF7B6FD1FED5D0B069E58
:102090000D460B99044653EC102B3046FEF752FECA
:1020A00022462B46FEF7A7FD1FED630BDDF820A0AF
:1020B00004460A980D4653EC102B5146FEF742FE9B
:1020C00022462B46FEF797FD1FED690B04460D4691
:1020D0000998029953EC102BFEF734FE22462B464A
:1020E000FEF789FD1FED6E0B53EC102BFEF783FD01
:1020F00041EC100B40F6B020C2F2000080ED0A0B5C
:102100001FED730B484653EC102B3946FEF71AFEB1
:102110001FED750B04460D4653EC102B40465946F7
:10212000FEF710FE22462B46FEF765FD1FED7A0BEB
:10213000DDF82CB004460D4653EC102B30465946C2
:10214000FEF700FE22462B46FEF755FD1FED800BE5
:10215000DDF8289004460D4653EC102B48465146B6
:102160005746FEF7EFFD22462B46FEF744FD1FEDD6
:10217000860BDDF824A0DDF8088004460D4653ECFC
:10218000102B50464146FEF7DDFD22462B46FEF75A
:1021900032FD1FED8D0B53EC102BFEF72CFD41ECA7
:1021A000100B40F6B020C2F2000080ED0C0B1FEDCA
:1021B000920B059E079953EC102B3046FEF7C2FD9B
:1021C0001FED950B04460D46DDE9030153EC102B82
:1021D000FEF7B8FD22462B46FEF70DFD1FED9A0BCC
:1021E000044606980D4653EC102B5946FEF7AAFDFF
:1021F00022462B46FEF7FFFC1FED9F0B04460D46C3
:1022000053EC102B48463946FEF79CFD22462B46E0
:10221000FEF7F1FC1FEDA40B04460D4653EC102B0A
:1022200050464146FEF78EFD22462B46FEF7E3FC64
:102230001FEDA90B53EC102BFEF7DDFC41EC100B4E
:1022400040F6B020C2F2000080ED0E0B1FEDAE0B89
:10225000DDF81C8053EC102B30464146FEF772FD32
:102260001FEDB10BDDF80CB0DDF8109004460D4603
:1022700053EC102B58464946FEF764FD22462B4688
:10228000FEF7B9FC1FEDB80B069EDDF82CA0044646
:102290000D4653EC102B30465146FEF753FD2246B7
:1022A0002B46FEF7A8FC1FEDBE0B04460A980D4610
:1022B00053EC102B3946FEF745FD22462B46FEF720
:1022C0009AFC1FEDC30B029F044609980D4653EC80
:1022D000102B3946FEF736FD22462B46FEF78BFCC7
:1022E0001FEDC90B53EC102BFEF785FC41EC100BD6
:1022F00040F6B020C2F2000080ED100B1FEDCE0BB7
:10230000059853EC102B4146FEF71CFD1FEDD00B3A
:1023100004460D4653EC102B58464946FEF712FD75
:1023200022462B46FEF767FC1FEDD50B04460D46F3
:1023300053EC102B30465146FEF704FD22462B4647
:10234000FEF759FC1FEDDA0B04460D460A98089972
:1023500053EC102BFEF7F6FC22462B46FEF74BFC07
:102360001FEDDF0B044609980D4653EC102B394640
:10237000FEF7E8FC22462B46FEF73DFC1FEDE40B82
:1023800053EC102BFEF737FC41EC100B40F6B02657
:10239000C2F2000686ED120B8DED0C8B9DF8370016
:1023A00080F080008DF837009DED0C0B07F084F96C
:1023B0001FEDEF1B51EC100B54EC115B2A4623462A
:1023C000FEF719FC02460B4628462146FEF72CFD77
:1023D00041EC100B40F6003A96ED021BC2F2000AE7
:1023E0008AED000B8DED0E1B9DF83F0080F0800004
:1023F0008DF83F009DED0E0B07F05EF951EC100BD0
:102400002A462346FEF7F7FB02460B46284621469E
:10241000FEF70AFD41EC100B96ED041B8AED020B52
:102420008DED101B9DF8470080F080008DF847006F
:102430009DED100B07F040F951EC100B2A46234696
:10244000FEF7D9FB02460B4628462146FEF7ECFC78
:1024500041EC100B96ED061B8AED040B8DED121B63
:102460009DF84F0080F080008DF84F009DED120B1D
:1024700007F022F951EC100B2A462346FEF7BBFB6E
:1024800002460B4628462146FEF7CEFC41EC100BD7
:1024900096ED081B8AED060B8DED141B9DF8570079
:1024A00080F080008DF857009DED140B07F004F9C3
:1024B00051EC100B2A462346FEF79DFB02460B46C5
:1024C00028462146FEF7B0FC41EC100B96ED0A1BA6
:1024D0008AED080B8DED161B9DF85F0080F08000E3
:1024E0008DF85F009DED160B07F0E6F851EC100B30
:1024F0002A462346FEF77FFB02460B462846214626
:10250000FEF792FC41EC100B96ED0C1B8AED0A0BCA
:102510008DED181B9DF8670080F080008DF8670036
:102520009DED180B07F0C8F851EC100B2A46234616
:10253000FEF761FB02460B4628462146FEF774FC77
:1025400041EC100B96ED0E1B8AED0C0B8DED1A1B5A
:102550009DF86F0080F080008DF86F009DED1A0BE4
:1025600007F0AAF851EC100B2A462346FEF743FB6E
:1025700002460B4628462146FEF756FC41EC100B5E
:1025800096ED101B8AED0E0B8DED1C1B9DF8770050
:1025900080F080008DF877009DED1C0B07F08CF823
:1025A00051EC100B2A462346FEF725FB02460B464C
:1025B00028462146FEF738FC41EC100B96ED121B25
:1025C0008AED100B8DED1E1B9DF87F0080F08000C2
:1025D0008DF87F009DED1E0B07F06EF851EC100B8F
:1025E0002A462346FEF707FB02460B4628462146AD
:1025F000FEF71AFC41EC100B80468AED120B9FEDA2
:10260000760B894653EC102B9AED020B9AED00AB3A
:102610009AED049B9AED068B51EC100BFEF792FBA2
:102620009FED6F0B06460F4653EC102B51EC1A0B27
:10263000FEF788FB32463B46FEF7DDFA9FED6A0B5C
:1026400006460F4653EC102B51EC190BFEF77AFBA4
:1026500032463B46FEF7CFFA9FED650B06460F4626
:1026600053EC102B51EC180BFEF76CFB32463B463B
:10267000FEF7C1FA9AED080B9FED5F1B06460F4669
:1026800053EC112B51EC100BFEF75CFB32463B4632
:10269000FEF7B1FA9AED0A0B9FED591B06460F465D
:1026A00053EC112B51EC100BFEF74CFB32463B4622
:1026B000FEF7A1FA9AED0C0B9FED531B06460F4651
:1026C00053EC112B51EC100BFEF73CFB32463B4612
:1026D000FEF791FA9AED0E0B9FED4D1B06460F4645
:1026E00053EC112B51EC100BFEF72CFB32463B4602
:1026F000FEF781FA9AED100B9FED471B06460F4639
:1027000053EC112B51EC100BFEF71CFB32463B46F1
:10271000FEF771FA9FED420B06460F4653EC102B65
:1027200040464946FEF70EFB32463B46FEF763FA4B
:102730009FED3D0B53EC102BFEF75DFA41EC100BB7
:1027400040F27816C2F2000686ED000B9FED380BC2
:1027500053EC102BFEF7F6FA41EC100B06F0ACFF31
:1027600051EC100B2A462346FEF745FA9FED320B3B
:1027700002460B4651EC100BFEF756FBDDE900322A
:10278000FEF739FA41EC100B2A46234686ED040B7E
:10279000FEF731FA9FED2A0B53EC102BFEF7D2FA1D
:1027A0009FED290B55EC104B22462B46FEF723FAE2
:1027B00022462B46FEF738FB41EC100B40F220007E
:1027C000C2F2000080ED0E0B20B0BDEC068B01B014
:1027D000BDE8F08F00BF00BFD95F764F1E562A407C
:1027E000A7936C753925B43FDDCD531D7233D43FAB
:1027F000174850FC187F5240C217265305A3F03FDC
:1028000003098A1F63EEF93F992A1895D40903C07A
:102810003D49BA66F2CDEABF685C38109205DC3FEC
:10282000226C787AA53C42C0C1A8A44E40D342C0D5
:1028300000000000000000C0000000000000004098
:102840000000000000804140000000000000244023
:10285000FEE7000041F63810C2F2000000F098BB1D
:1028600041F69810C2F2000000F092BB41F6D80089
:10287000C2F2000000F08CBB41F67800C2F200000A
:1028800000F086BB41F61800C2F2000000F080BBE9
:1028900070470000704700007047000070B581B0BD
:1028A0000022009290F83C20012A03D10221084620
:1028B00001B070BD0E6801220A2E80F83C2009D3B9
:1028C000B2B25200D0F800E012FA86F21E3A0EF1CF
:1028D0000C0305E0D0F800E006EB46020EF1100311
:1028E0004FF0070C1D680CFA02F4A5431D608D68BB
:1028F0001C6805FA02F222431A60496806290FD8BB
:1029000001EB81014A1F71461F2351F8345F934048
:1029100025EA03030B60B3B203FA02F214E000BF2E
:1029200001EB81030C29B2B204D8714651F8304F43
:10293000233B03E0714651F82C4F413B1F259D403E
:1029400024EA05059A400D600B6842F2043CC4F28B
:10295000010C1A43ACF541739E450A603BD1122E1F
:1029600006D1DCF8001041F48001CCF8001032E010
:1029700026F0010110292ED1DCF80010102E41F4B0
:102980000001CCF8001026D140F20C01C2F2000187
:1029900009684DF68362C4F21B32A1FB0212910C4E
:1029A00001EB8101490000910099A1B10099013921
:1029B0000091009979B1009901390091009951B1C4
:1029C000009901390091009929B1009901390091CC
:1029D00000990029EAD1002180F83C10084601B096
:1029E00070BD000070470000704700000068C06CB8
:1029F00070470000B0B5044600680268416892075D
:102A000017D511F0200114D0216CC90603D4216C14
:102A100041F400712164816811F0405F02D1A16925
:102A2000002971D02046FFF7DDFF20686FF012010A
:102A3000016002684168520714D511F0800111D07D
:102A4000216CC90603D4216C41F4005121648168D2
:102A500011F4401F26D02046FFF71EFF20686FF0BC
:102A60000C01016002684168D20706D011F04001F4
:102A70001CBF01685FEAC17136D1026841689206E5
:102A80000FD511F0806108BFB0BD616C6FF02005FB
:102A900041F00201616405602046FFF7A5FF206850
:102AA0000560B0BD816B11F4401F02D081684905FB
:102AB000D1D441684905CED4816811F0405FCAD1B4
:102AC000A1690029C7D1416821F080014160206CD3
:102AD00020F480502064206CC005BCD4206C40F0F1
:102AE00001002064B7E700BF206C40F48030206410
:102AF000204600F0D3F820686FF001010160026801
:102B000041689206BDD4CCE7C16A11F4700F03D0BE
:102B1000816849053FF586AF416821F02001416099
:102B2000206C20F480702064206CC0043FF57AAFE4
:102B3000206C40F00100206474E70000002804BF0E
:102B40000120704710B50446006C00283ED0206C70
:102B5000C00645D4206C41F202118843023042F293
:102B600004312064C4F20101086820F44030086098
:102B70000A6894E809101A43D4F810E00A60416822
:102B8000012321F4807141604168C0F6007341EA7D
:102B90000E214160416821F040714160416841EA85
:102BA0000C014160816821F400618160E168826804
:102BB00011438160A16A8268994222F0706282604A
:102BC000826813D122F0405119E000BF00206064F8
:102BD00084F83C00204600F063F8206CC006B9D5AC
:102BE0000120002184F83C1010BD00BF114381601A
:102BF000816821F040518160E16A826811438160FF
:102C0000816821F0020181608168A269236A41EA3A
:102C10004201816041688BB141F4006141604168CB
:102C20004EF2000221F460414160616ACFF6FF720A
:102C3000436802EB4131194302E000BF21F4006117
:102C40004160C16A40F2000C21F47001C162E26986
:102C5000D4F814E0236BCFF6F07CC16A0CEB02527F
:102C60001143C1628168012221F400718160816891
:102C700041EA43218160816821F48061816081683B
:102C800041EA8E21816000206064216C62F30101C1
:102C90002164002184F83C1010BD00007047000042
:102CA00070B586B00446006842F20021C4F201010A
:102CB00000268842CDE90466CDE9026601964BD034
:102CC00042F20011C4F20101884275D042F20001C3
:102CD000C4F20101884240F0C58043F630000096FE
:102CE000C4F20200416941F480714161416901F41B
:102CF0008071009100990096016841F00401016023
:102D0000006801A900F004000090009801200190E3
:102D10000320CDE9020640F60000C4F2020000F0F4
:102D2000DDFA46F21040C4F2020041F618056030A8
:102D3000C2F200054FF48061C5E9000605F11000FC
:102D40004FF400624FF400534FF4807CC5E90266F3
:102D500080E80E1071E000BF43F630000096C4F228
:102D60000200416941F480614161416901F480617F
:102D7000009100990096016841F00401016000682B
:102D800001A900F0040000900098042001900320A5
:102D9000CDE9020640F60000C4F2020000F09EFAFF
:102DA00041F6D80546F21040C2F20005C4F2020016
:102DB0004FF080612FE000BF43F630000096C4F270
:102DC0000200416941F400714161416901F40071FF
:102DD000009100990096016841F0040101600068CB
:102DE00001A900F004000090009802200190032047
:102DF000CDE9020640F60000C4F2020000F06EFACF
:102E000046F21040C4F2020041F678053030C2F2BA
:102E100000054FF000714FF480624FF400634FF4EF
:102E2000005C4FF4807E28606960AE60EE602A61CD
:102E30006B61C5F818C0C5F81CE04FF44030C5E917
:102E40000806284600F084F9002818BFFFF722FD85
:102E5000122000210022A563AC6300F08FFB12203A
:102E600000F07EFB06B070BD81B00021009190F8AB
:102E70003C10012902BF022001B070470122016805
:102E800080F83C208A68D20729D18A684DF683638E
:102E900042F001028A6040F20C02C2F200021268A3
:102EA000C4F21B33A2FB03239A0C02EB42020092F2
:102EB000009AA2B1009A013A0092009A7AB1009A5F
:102EC000013A0092009A52B1009A013A0092009A97
:102ED0002AB1009A013A0092009A002AEAD18A683F
:102EE000D2072DD0026C40F201739A4302F5807232
:102EF00002644A68520504D5026C012363F30D3263
:102F00000264036C0022DB044FF0000344BF436CF7
:102F100023F00603436480F83C206FF02200086031
:102F20004A6842F2000042F0806242F02002C4F29D
:102F300001004A60D0F80423D20605D0814209D0AE
:102F4000002001B0704700BF886810F0405FF7D1E3
:102F500004E000BF806810F0405FF1D1886840F065
:102F600080408860002001B07047000090F8351064
:102F7000022909D1052180F835100068016821F087
:102F800001010160002070478021416501207047E8
:102F9000F0B581B004460020009040F20C00C2F26F
:102FA00000000268D4E9166048F2B51337680821BA
:102FB000C1F64E3381403942A2FB03250CD0226872
:102FC00013685B0708D5136823F004031360B1602E
:102FD000616D41F00101616501218140394208D0F4
:102FE00022685269120604D5B160616D41F0020198
:102FF000616504218140394208D022681268920735
:1030000004D5B160616D41F004016165102181401A
:10301000394217D020680268120713D5B1600268E0
:103020000168520308D4C90508D4016821F00801D9
:103030000160216C21B905E008033FD4216C09B17E
:1030400020468847E16D202000FA01F23A4241D043
:1030500020680368DB063DD5B26094F8353002681D
:10306000052B1BD122F016020260426922F0800279
:103070004261226C0AB9A26C1AB1026822F00802FD
:1030800002603F208840B060002084F834000120B6
:1030900084F83500216D002952D157E001685203B0
:1030A00010D4C90512D4016821F01001016000207C
:1030B00084F83400012084F8350007E0A16C002971
:1030C000BED1BFE7080301D4616C00E0E16B09B138
:1030D00020468847606DC8B3606DC0072ED00520BC
:1030E00084F835002068A90A026822F00102026013
:1030F000009A01328A4200921AD80268D20717D089
:10310000009A01328A42009212D80268D2070FD088
:10311000009A01328A4200920AD80268D20707D088
:10312000009A01328A42009202D80268D207DFD1A7
:10313000002084F83400012084F83500E16C29B1C6
:10314000204601B0BDE8F040084700BF01B0F0BD27
:103150002DE9F041044600F093F9ECB1054600205A
:1031600084F83400022084F835002068016821F0DA
:103170000101016021680868C00711D000F080F9E2
:10318000401B0528F6D9032520230320636584F816
:103190003550BDE8F08100BF0120BDE8F08100BFDF
:1031A000086848F23F02CFF21002D4E9013500EA84
:1031B000020C04F10C0898E8C10143EA0C032B430C
:1031C0001843D4E9072E304338431043626A40EA7B
:1031D0000E00042A40EA08031CD1206BD4E90A2E11
:1031E00040EA0E00184308604869BEF1000F20F065
:1031F000030040EA020040F0040C11D0B8F5005F73
:1032000036D0B8F1000F45D1022A46D0012A3BD072
:1032100032B942E00B60486920F0070040EA020C36
:1032200001F0F8004AF6AB221038CAF6AA22A0FB39
:1032300002231A0942F63053C1F814C0C0F6010344
:103240009A5C40F2FF335F284FF03F0021EA030110
:1032500000FA02F088BF0431C4E916128860002326
:1032600001250020636584F83550BDE8F08100BF7A
:10327000032AD5D8012540230120DFE802F0030E00
:10328000030500BF82E700BFAEF1C070B0FA80F066
:10329000400904E0032A04D3C2D1CEF30060002821
:1032A000BED0012540230120636584F83550BDE878
:1032B000F0810000B0B5044600F0E2F8054640F2A7
:1032C0000400C2F200000078611C18BF044400BF73
:1032D00000F0D6F8401BA042FAD3B0BD2DE9F04F64
:1032E00082B000F13E4202F1FF72870541F60046CE
:1032F00043F6004E47EA9227C4F202060822C4F2BF
:10330000010EB04208BF07220125002400264FF01D
:103310000008072F38BF3A46009208E008F101087C
:103320000436B8F1100F04F1020400F09F800F681A
:1033300005FA08FC17EA0C09F0D0D1F804A04AF00D
:103340001007122F14D16FF0030202EA5807074446
:1033500006F01C050F22D7F820A002FA05F30A692F
:103360002AEA0303AA401A433A62D1F804A00125CD
:1033700002680323A3406FEA030B9A430AF0030396
:10338000A3401A43BAF1120F026014D805FA0AF2E8
:1033900012F0061F0FD08268CB6802EA0B02A3402E
:1033A0001A43826042684FEA1A1322EA0C0203FAB7
:1033B00008F31A434260C2688B6802EA0B02A3401A
:1033C0001A435FEACA03C260A8D5002243F6440349
:1033D0000192C4F202031A684FF6084C42F480428C
:1033E0001A601A68CFF6FF7C02F480420192019ABB
:1033F00028F00302724452F80C3006F00C070F2537
:10340000BD40AB43009D05FA07F73B4342F80C3043
:10341000DEF800204B6842EA0907DD0358BF22EAC4
:103420000907CEF80070DEF804209D0342EA090780
:1034300058BF22EA0907CEF80470DEF80820DD0242
:1034400042EA090743F60C4558BF22EA0907CEF8BD
:103450000870C4F201052A689B0242EA090758BFB6
:1034600022EA09072F60012558E700BF02B0BDE836
:10347000F08F0000002A08BF090481617047000036
:1034800041F6EC50C2F200000068704740F20400C0
:1034900041F6EC51C2F20000C2F2000100780A6865
:1034A000104408607047000080B543F60040C4F245
:1034B0000200016841F400710160016841F480611B
:1034C0000160016841F480710160032000F082F81E
:1034D000002000F005F800F027F8002080BD000073
:1034E00070B540F20406C2F2000640F20C013278D8
:1034F000C2F200014FF47A730968B3FBF2F204469A
:10350000B1FBF2F1084601F003FC0F2C4FF001056E
:1035100008D838B94FF0FF3021460022002500F0CE
:103520002DF87460284670BD82B0002043F640013B
:103530000190C4F202014A6842F480424A604A683B
:1035400002F480420192019A0090086840F0805095
:103550000860086800F080500090009802B0704742
:1035600000F01F01012202FA01F14EF2001240099F
:10357000CEF2000242F820107047000010B54EF65F
:103580000C5CCEF2000CDCF80030C3F3022E8EF09F
:103590000704042C28BF0424BEF103034FF0FF3EB0
:1035A0000EFA04F438BF0023A14399400EFA03F346
:1035B0009A43114300F1604200F00F03090102F544
:1035C0006442043B6344002848BF03F10C021170BD
:1035D00010BD00004EF60C51CEF200010A684FF605
:1035E000FF031A4060F30A2242F0806040F0FD7051
:1035F00008607047F0B581B00446006810F0050F10
:103600002DD06827C4F2472743F670060020C4F285
:1036100002063860FFF734FF054600BF56F8700C0D
:10362000000105D5FFF72CFF401B0228F6D93FE02B
:10363000D4E90101090741EA801070610120386076
:10364000FFF71EFF054600BF56F8700C000105D4B9
:10365000FFF716FF401B0228F6D929E020688007F3
:103660004FF0000058D543F67006C4F202060090F1
:1036700056F8300C47F2000740F0805046F8300C06
:1036800056F8300CC4F2000700F08050009000980B
:10369000386840F480703860FFF7F2FE054600BFDE
:1036A0003868C00508D4FFF7EBFE401B0228F7D9A5
:1036B000032001B0F0BD00BF306810F4407013D09B
:1036C000E16801F4407188420ED0306840F64061F4
:1036D000C4F24721012220F440700A6000220A60EF
:1036E00030603068C00719D1E06856F8681C4FF6A2
:1036F000FF4300F4407221F4F811C0F6FF73034059
:10370000B2F5407F08BF194346F8681C31686FF373
:103710001F3008433060002001B0F0BDFFF7B0FE5D
:10372000054641F2883700BF30688007DCD4FFF7D8
:10373000A7FE401BB8424FF00300F5D9ECE70000AC
:103740002DE9F041002800F0878043F60808C4F214
:1037500002080446D8F8F8030D4600F00F0088422E
:1037600007D288F8F853D8F8F80300F00F00A84201
:1037700072D12068810717D5410705D5D8F8001008
:1037800041F4E051C8F80010010705D5D8F8001041
:1037900041F46041C8F80010D8F80010A26821F088
:1037A000F0011143C8F80010C0073BD1D8F8F80366
:1037B00000F00F00A84207D988F8F853D8F8F803AA
:1037C00000F00F00A84247D12068410707D5D8F87C
:1037D0000010E26821F4E0511143C8F8001000071E
:1037E00008D5D8F80000216920F4604040EAC10003
:1037F000C8F8000000F078F8D8F8001042F6185227
:10380000C1F30311C0F60102515C0024C84040F22C
:103810000C01C2F2000108600020FFF761FE2046A3
:10382000BDE8F0816068811E022907D258F8081CA3
:1038300089015CBF0120BDE8F08111E0012807D1BA
:1038400058F8081C89035CBF0120BDE8F08107E03F
:1038500058F8081C890703D40120BDE8F08100BF97
:10386000D8F8001021F003010843C8F80000FFF762
:1038700007FE064641F28837D8F80000616800F07C
:103880000C00B0EB810F91D0FFF7FAFD801BB8421E
:10389000F2D90320BDE8F08140F20C0043F60801A4
:1038A000C2F20000C4F202010068096842F6285220
:1038B000C1F38221C0F60102515CC840704700008C
:1038C00040F20C0043F60801C2F20000C4F202010B
:1038D0000068096842F62852C1F34231C0F601027D
:1038E000515CC8407047000010B543F60404C4F2B0
:1038F0000204606800F00C0142F200400829C0F2A6
:10390000F40007D0042918BF10BD41F20020C0F216
:103910007A0010BD216801F03F0221682368490246
:10392000C3F3881106D4A1FB00010023FDF719F9A8
:1039300007E000BF41F20020C0F27A004843B0FB2C
:10394000F2F021680222C1F3014102EB4101B0FB18
:10395000F1F010BD002804BF012070472DE9F041AF
:1039600082B00446007843F60006C007C4F202069F
:1039700025D0B06800F00C00042819D0B06800F021
:103980000C00082802D17068400211D46068B0F5BC
:10399000803F07D0B0F5A02F40F01681306840F48A
:1039A00080203060306840F48030306016E100BF25
:1039B0003068800303D56068002800F0AF8020786D
:1039C000800719D5B06810F00C0F07D0B06800F070
:1039D0000C00082868D17068400265D43068800700
:1039E00003D5E068012840F099803068216920F013
:1039F000F80040EAC10030602078000710D4207839
:103A0000400727D4A569002D00F01C81B06800F0A4
:103A10000C00082840F08680012002B0BDE8F0814B
:103A20006069002840F20000C4F2472062D0012102
:103A3000C0F8801EFFF724FD054600BF706F8007A9
:103A4000DDD4FFF71DFD401B0228F7D9032002B08B
:103A5000BDE8F081306C5FEAC0080AD40020019014
:103A6000306C40F080503064306C00F08050019039
:103A7000019847F20007C4F200073868C0052BD44C
:103A8000386840F480703860FFF7FAFC054600BFE4
:103A90003868C00520D4FFF7F3FC401B0228F7D993
:103AA000032002B0BDE8F081E068002840F2000089
:103AB000C4F247205AD001210160FFF7E1FC05461E
:103AC0003068800791D4FFF7DBFC401B0228F7D950
:103AD000032002B0BDE8F081A068012805D00528C8
:103AE00056D1306F40F004003067306F40F0010075
:103AF000306757E00021C0F8801EFFF7C1FC054683
:103B0000706F80077FF57BAFFFF7BAFC401B022880
:103B1000F6D9032002B0BDE8F08100BF012002B059
:103B2000BDE8F0810027C4F2472700203866FFF780
:103B3000A7FC022D05460DD13068800160D5FFF746
:103B40009FFC401B02284FF00300F5D902B0BDE8EE
:103B5000F08100BF3068800174D5FFF791FC401BF5
:103B600003284FF00300F5D3F0E700BF0021016008
:103B7000FFF786FC054600BF306880077FF53CAF45
:103B8000FFF77EFC401B02284FF00300F4D9DDE76D
:103B9000316F002821F001013167316F21F00401FC
:103BA000316753D0FFF76CFC054641F2883700BF00
:103BB000306F80075CD4FFF763FC401BB842F7D935
:103BC000032002B0BDE8F0813168002821F4803183
:103BD0003160316821F48021316053D0FFF750FC0F
:103BE000054600BF306880033FF5E9AEFFF748FCAB
:103BF000401B6428F6D9032002B0BDE8F08100BF65
:103C000004F11C052FCD084340EA8210D9034FF67A
:103C1000FF729143A1F5803140EA0560084370606E
:103C200001203866FFF72CFC044600BF3068800195
:103C300008D4FFF725FC001B02284FF00300F5D93C
:103C400084E700BF002002B0BDE8F081FFF718FC58
:103C5000054641F2883700BF306F800708D5FFF76F
:103C60000FFC401BB8424FF00300F5D96EE700BFD0
:103C7000B8F1000F3FF5C6AE306C20F080503064D4
:103C8000C0E600BFFFF7FCFB054600BF30688003BD
:103C90007FF595AEFFF7F4FB401B64284FF003005F
:103CA000F4D953E7704700007047000010B5044690
:103CB0000068C168C90544BF81685FEAC14111D489
:103CC000C168890544BF80685FEA804016D443F626
:103CD0001440C4F201004FF400310160012060770C
:103CE00010BD00BF2046FFF7DFFF2068C16861F408
:103CF000C07121F48071C160E2E700BF2046FFF788
:103D0000D1FF2068C16861F4207121F40071C160A5
:103D1000DDE70000002804BF01207047B0B504466D
:103D2000407F20B900202077204600F061F8022073
:103D300060772168CA20486253204862C8684006FC
:103D400012D44FF0FF30C860FFF79AFB054600BF62
:103D50002168C868400607D4FFF792FB401BB0F506
:103D60007A7FF5D92EE000BF88684FF6BF72CFF694
:103D70008F7210408860D4E9010CD4E90335626980
:103D800028438D681043284388600B61086940EA26
:103D90000C400861C86820F08000C8608868800610
:103DA00018D4C86820F0A000C860FFF769FB05467A
:103DB0002168C86880060DD4FFF762FB401BB0F590
:103DC0007A7FF5D9216801200422FF234B626277B4
:103DD000B0BD00BF086C20F480200864A0690A6CA4
:103DE0001043086400200122FF234B626277B0BDBC
:103DF000006842F60001C4F20001884218BF704713
:103E000080B540F63C60C4F24720012101602920C2
:103E100000210022FFF7B2FB2920BDE88040FFF718
:103E20009FBB00002DE9F04781B040F20C03C2F2C5
:103E300000031B6844F6D354C1F26204A3FB0434AC
:103E4000E30A4FF47A7463430093037F012B4FF02E
:103E5000020300F031814377D0F800C0DCF808306D
:103E600032B15A060CD44FF0000E81F803E00AE09C
:103E70005A061BD44FF0000E81F803E019E000BF92
:103E8000CA784FEA024ECB690F784E788D7843EAB4
:103E9000074343EA06234A692B4391F8204043EA4B
:103EA0000E031A4342EA046263E000BFCA784FEA95
:103EB000024E0D784FF0CD08A5F10A02D3B203FBF4
:103EC00008F3DF0A4E7807EB87075FFA85F9A2EB64
:103ED00047074FF0010A8C780AEBD323B9F1090F99
:103EE00088BF47EA0315A6F10A07FAB202FB08F2F7
:103EF000D30A5FFA85F9F5B203EB8303A7EB43031B
:103F00000AEBD222092D88BF43EA0216A4F10A0562
:103F1000F2B2EEB206FB08F6F70A1202E3B207EBC2
:103F2000870742EA0942A5EB47050AEBD626092B8B
:103F300088BF45EA0614E3B21A4491F8203042EAF9
:103F40000E02A3F10A06F5B205FB08F5EC0A04EB34
:103F50008404DFB2A6EB44060AEBD525092F88BFFF
:103F600046EA0513CF694E6942EA036246EA07034F
:103F70001A43D1F804E08B694C6ACA21CCF82410AA
:103F80005321CCF82410DCF80810B4F5807F39D127
:103F900021F48071CCF80810DCF80C1061F4C071C9
:103FA00021F48071CCF80C1000994C1E002900946B
:103FB0007AD0DCF80C10C9071AD100994C1E0029E0
:103FC000009471D0DCF80C10C90711D100994C1E77
:103FD0000029009468D0DCF80C10C90708D10099BA
:103FE0004C1E002900945FD0DCF80C10C907DBD010
:103FF000CCF81C200CF144024FF480514FF4807433
:1040000035E000BF21F40071CCF80810DCF80C108A
:1040100061F4207121F40071CCF80C1000994C1E51
:104020000029009440D0DCF80C10890717D40099BF
:104030004C1E0094C1B3DCF80C1089070FD4009912
:104040004C1E009481B3DCF80C10890707D400994A
:104050004C1E009441B3DCF80C108907DED5CCF877
:1040600020200CF148024FF400514FF4007443EA51
:104070000E031360DCF8082000232243CCF808204C
:10408000DCF808201143CCF8081043F60041C4F2D4
:1040900001010A6842F400320A608A6842F4003280
:1040A0008A60012102E000BF03210323FF22CCF834
:1040B0002420417700210177184601B0BDE8F08740
:1040C0002DE9F04381B00446007F01284FF0020043
:1040D00000F099800123237760773AB14878CA7855
:1040E0008E78000240EA024846E000BF48784FF070
:1040F000CD0CC20642BF00F0EF000A304870CA780B
:104100004FF00109A2F10A07FDB205FB0CF5EB0A1D
:1041100003EB83035FFA82FEA7EB43038E7809EB80
:10412000D525BEF1090F88BF43EA0512A0F10A03A5
:10413000DDB205FB0CF5EF0A07EB8707A3EB47039E
:1041400009EBD527092888BF43EA0710C0B2D2B2CD
:10415000000240EA0248A6F10A02D3B203FB0CF3C4
:10416000DF0AF0B207EB8707A2EB470209EBD32384
:10417000092888BF42EA03160F782168CA204862DE
:1041800053204862C868400612D44FF0FF30C86020
:10419000FFF776F9054600BF2168C868400607D4D6
:1041A000FFF76EF9401BB0F57A7FF5D920E000BF2C
:1041B000F0B240EA08007A0320F0C00010434860E3
:1041C000C86820F08000C8608868800614D4C86879
:1041D00020F0A000C860FFF753F905462168C868C1
:1041E000800609D4FFF74CF9401BB0F57A7FF5D96A
:1041F00021680120042201E000200122FF234B62FC
:1042000000216277217701B0BDE8F0832DE9F04FFE
:1042100081B00446007F01284FF0020000F0BB800F
:104220000D460121217760772168886832B1400608
:104230000CD44FF0000885F803800AE0400611D442
:104240004FF0000885F803800FE000BFE8784FEAE0
:1042500000486A78287895F802A0120242EA0049DC
:1042600047E000BFE8784FEA00482A784FF0CD0CCD
:10427000A2F10A00C6B206FB0CF66B78F70A4FF003
:10428000010B5FFA82FE07EB87070BEBD62695F84A
:1042900002A0A0EB4700BEF1090F88BF40EA06125A
:1042A000A3F10A06F7B207FB0CF7F80A5FFA82FEE1
:1042B000DAB200EB8000A6EB40000BEBD726092A10
:1042C00088BF40EA0613AAF10A02D8B2D3B203FBB0
:1042D0000CF30002DF0A40EA0E495FFA8AF007EBAE
:1042E0008707A2EB47020BEBD323092888BF42EADA
:1042F000031ACA20486253204862C868400611D495
:104300004FF0FF30C860FFF7BBF806462168C86869
:10431000400607D4FFF7B4F8801BB0F57A7FF5D9D3
:104320002EE000BF5FFA8AF040EA090047F67F728C
:1043300040EA0800C0F27F0210400860886820F45C
:1043400080208860D5E903028B6810431843886099
:10435000C86820F08000C8608868800614D4C868E7
:1043600020F0A000C860FFF78BF805462168C868F8
:10437000800609D4FFF784F8401BB0F57A7FF5D9A1
:1043800021680120042201E000200122FF234B626A
:1043900000216277217701B0BDE8F08F70470000FF
:1043A000B0B582B0044600684168826802F04103FB
:1043B000012B09D111F0400306D0216C204602B038
:1043C000BDE8B040084700BF930709D511F080034E
:1043D00006D0616C204602B0BDE8B040084700BF7F
:1043E00012F4B07F18BF11F0200301D102B0B0BDAC
:1043F000530618D594F85130032B09D100210191AF
:10440000C168019180680190019802B0B0BD00BF01
:10441000636D43F00403636500230193C368019354
:1044200083680193019B930604D4D20511D4626D75
:10443000DAB9DBE7636D43F00103636500230193A1
:1044400083680193036823F040030360019BD20556
:10445000EDD5626D42F00802626500220192826829
:104460000192019A626D002AC0D04268890722F049
:10447000E00242604FF0010284F8512016D04168FA
:1044800047F6BD5521F003014160E06CC0F6000520
:1044900010B10565FEF76AFDA06C0028A6D0056581
:1044A00002B0BDE8B040FEF761BD00BF204602B0DB
:1044B000BDE8B040FFF772BF70B5A8B300268662B2
:1044C000054690F8510020B9284685F8506000F064
:1044D0002DF8022085F8510095E807101143036874
:1044E00041EA0C0123F0400303602A69EC6911439F
:1044F000D5E90523114303F4007211432A6A2143CD
:10450000AC6A11432143016004216A6A01EA134144
:1045100011434160C16921F40061C16101206E65F0
:1045200085F85100304670BD012070BD10B586B0D1
:10453000006843F60002C4F2000200219042CDE977
:104540000411CDE90211019124D043F20001C4F21B
:104550000101884252D1002043F630010090C4F29C
:1045600002014A69232442F480524A614A6902F4F2
:1045700080520092009A0090086840F001000860A4
:104580000868E02100F00100009000980020C4F2CB
:1045900002001FE043F630000091C4F202000269FD
:1045A000242442F480420261026902F480420092B3
:1045B000009A0091016841F00201016000684FF427
:1045C000604100F00200009000980020C4F2020058
:1045D00000F58060019102210291002103910321E5
:1045E00004910521059101A9FEF778FE20460021DE
:1045F0000022FEF7C3FF2046FEF7B2FF06B010BD53
:104600002DE9F04381B0044640681E461746B0F5D8
:10461000827F0D4602D1A068002855D094F8500042
:10462000012803D1022001B0BDE8F0834FF0010959
:1046300084F85090FEF724FF94F85110012941D1DD
:104640008046002D4FF0010018BF002F00F09C8025
:104650000420002184F851006165A563A787E787DE
:104660002163A186E186A0682164B0F5004F20682F
:1046700061644BD0016849064FD5E268E18F002A9A
:1046800053D000296CD0711C11D09EBB8168C90722
:1046900063D0C16825F8021BE18F0139E187E18F02
:1046A0000029F3D15CE000BFE18F002958D0816878
:1046B000C907F9D0C16825F8021BE18F0139E187EC
:1046C000F2E700BF02205FE0042084F8510020469A
:1046D00029462A463B46009600F0A0F901B0BDE805
:1046E000F08300BFC06825F8020BE08F0138E08737
:1046F000E08FA8B320688168C907F3D1FEF7C0FE38
:10470000A0EB0800B042F3D327E000BF016821F41A
:104710008041016001684906AFD4016841F0400161
:104720000160E268E18F002AABD1C9B1771C07E0D4
:10473000007B05F8010BE08F0138E087E08F78B14E
:1047400020688168C907F3D1002FF7D02EB1FEF79A
:1047500097FEA0EB0800B042F0D3032014E000BFA6
:104760006068B0F5827F0BD1A068B0F5004F02D031
:10477000B0F5806F04D12068016821F0400101602C
:10478000606D002818BF0120002184F8519084F842
:10479000501001B0BDE8F0832DE9F04381B004462C
:1047A00090F85000012803D1022001B0BDE8F08349
:1047B0004FF001091D4616460F4684F85090FEF74B
:1047C0005FFE94F8511001294ED18046002F4FF022
:1047D000010018BF002E48D00320002184F85100AA
:1047E00061652763A686E686A163A187E187A06845
:1047F0002164B0F5004F206861643FD1016841F445
:1048000080410160016849063BD5E2686168B2F504
:10481000006F3FD111B1E18E012905D137F8021B9C
:10482000C160E08E0138E086E08E002858D06E1C12
:1048300009E000BF37F8021BC160E08E0138E08656
:10484000E08E00284CD0206881688907F2D4002EC1
:10485000F6D0002D00F0DF80FEF712FEA0EB08007E
:10486000A842EDD3D7E000BF0220002184F8519088
:1048700084F8501001B0BDE8F08300BF016849061C
:10488000C3D4016841F040010160E2686168B2F59B
:10489000006FBFD011B1E18E012905D117F8011BBE
:1048A0000173E08E0138E086E08EC8B16E1C07E02F
:1048B00017F8011B0173E08E0138E086E08E78B1B5
:1048C000206881688907F3D4002EF7D0002D00F00E
:1048D000A280FEF7D5FDA0EB0800A842EED39AE037
:1048E0002068816889071BD4002D71D0691C0DD107
:1048F0008168890714D4816889075CBF81685FEA91
:1049000081710DD481688907F2D509E0FEF7B8FD01
:10491000A0EB08012068A9425AD281688907F5D521
:10492000816809060ED4A16831B900210091C168DF
:104930000091806800900098606D002818BF0120E9
:1049400093E700BFD5B1691C11D181680906EAD58A
:104950008168090644BF81685FEA0161E3D5816827
:104960000906F2D4DFE700BF81680906DBD5FEF750
:1049700087FDA0EB08012068A942F5D3416821F02A
:10498000E00141606168B1F5827F0AD1A168B1F5AB
:10499000004F02D0B1F5806F03D1016821F04001D2
:1049A0000160A16AB1F5005F08D101684DF6FF72A0
:1049B00011400160016841F400510160012084F858
:1049C0005100616D41F020016165202161654CE776
:1049D000416821F0E00141606168B1F5827F0AD150
:1049E000A168B1F5004F02D0B1F5806F03D1016825
:1049F00021F040010160A16AB1F5005F08D10168B2
:104A00004DF6FF7211400160016841F400510160F0
:104A1000012084F85100032027E700002DE9F0472A
:104A200082B0044690F85000012803D1022002B061
:104A3000BDE8F08701201D4616468A4684F85000DE
:104A4000FEF71EFD94F851108046012968D1BAF195
:104A5000000F4FF0010018BF002E00F0AC80002DB9
:104A600000F0A98094F851000021012804BF05201E
:104A700084F851006165A663E587A587C4F830A076
:104A8000E5862068A586216461640168490603D42F
:104A9000016841F040010160E268DDF8289061683A
:104AA000B2F5006F4CD111B1E18E012905D13AF870
:104AB000021BC160E08E0138E086012709F1010583
:104AC000E08E18B9E08F002800F07E8087B1E08E7C
:104AD00018B120688168890704D40127E08F50B994
:104AE00014E000BF3AF8021BC160E08E0138E08696
:104AF0000027E08F50B120688168C90706D0C068E0
:104B0000012726F8020BE08F0138E087002DD7D06F
:104B1000FEF7B6FCA0EB08004845D1D34AE000BF41
:104B20006068B0F5827F09D104294FF0020042D1BC
:104B3000A16800293FF48BAF3DE000BF02203AE0BE
:104B400011B1E18E012905D11AF8011B0173E08E24
:104B50000138E086012709F1010500BFE08E08B9A0
:104B6000E08F88B387B1E08E18B12068816889072B
:104B700004D40127E08F50B914E000BF1AF8011BDC
:104B80000173E08E0138E0860027E08F50B1206885
:104B90008168C90706D0C068012706F8010BE08FBD
:104BA0000138E087002DD9D0FEF76AFCA0EB0800A1
:104BB0004845D3D30320012184F85110002184F803
:104BC000501002B0BDE8F0872168886880071DD4C6
:104BD000B9F1000F76D019F101000DD18868800776
:104BE00014D4886880075CBF88685FEA80700DD441
:104BF00088688007F2D509E0FEF742FCA0EB0800C8
:104C0000216848455ED288688007F5D58868000627
:104C10000CD4A06800284FF00000CCD10190CA68E5
:104C20000192896801910199C5E700BFB9F1000FB0
:104C30001AD019F1010010D188680006E9D58868FA
:104C4000000644BF88685FEA0060E2D58868000615
:104C5000F2D4DEE788680006DBD5FEF711FCA0EB96
:104C6000080021684845F5D3486820F0E000486016
:104C70006068B0F5827F0AD1A068B0F5004F02D01D
:104C8000B0F5806F03D1086820F040000860A06A8A
:104C9000B0F5005F08D108684DF6FF72104008605B
:104CA000086840F4005008600120002184F8510099
:104CB00084F85010616D41F020016165202161652B
:104CC00079E700BF486820F0E00048606068B0F510
:104CD000827F0AD1A068B0F5004F02D0B0F5806F96
:104CE00003D1086820F040000860A06AB0F5005FBA
:104CF00008D108684DF6FF7210400860086840F45B
:104D000000500860012084F85100032053E70000A0
:104D1000411E0020B0EB116F1CBF012070474EF206
:104D20001002CEF2000251604EF62351CEF2000185
:104D3000F0230B70072190601160704770470000EE
:104D40007047000090F83820012A4FF0020219D075
:104D500080F839200268536823F070035360536869
:104D6000D1E9001C19435160916821F080019160E4
:104D7000916841EA0C0191600121002280F839100C
:104D800080F8382010467047002804BF0120704783
:104D900010B5044690F8390028B9002084F838008E
:104DA000204600F00DF8022084F839002068211D0B
:104DB00003F0BAFD012084F83900002010BD000086
:104DC00080B582B0006840F20041C4F20001884220
:104DD0001CD0B0F1804F28D10020019043F6400054
:104DE000C4F202000168002241F001010160006884
:104DF000002100F00100019001981C20FEF7BEFB8D
:104E00001C2002B0BDE88040FEF7AABB0020009045
:104E100043F64000C4F20200016841F00201016063
:104E2000006800F002000090009802B080BD000011
:104E30000146022081F839000868026842F0010248
:104E400002600122002081F83920704790F8382054
:104E5000012A4FF0020200F0E48080B580F839208A
:104E6000D0F800C04FF67772DCF8083023EA02026F
:104E7000CCF808200B684F2B28DC1F2B36DD202BAD
:104E800066D0302B6CD0402B40F0C380D1F804E0CA
:104E9000C968DCF82030DCF8202022F00102CCF8D0
:104EA0002020DCF8182022F0F00242EA011123F061
:104EB0000A0242EA0E02CCF81810CCF82020DCF8E6
:104EC000081041F0470121F03001A0E06F2B19DDFF
:104ED000702B4DD0B3F5005F5ED0B3F5805F40F02E
:104EE0009880DCF8081021F0070190E0002B67D0D3
:104EF000102B40F08E80DCF8081041F0170121F0F3
:104F0000600184E0502B63D0602B40F08280D1F8A8
:104F100004E0C968DCF8203023F01003CCF820301E
:104F2000DCF81830DCF8202023F4704322F0A002D3
:104F300043EA013142EA0E12CCF81810CCF82020D6
:104F4000DCF8081041F0670121F010015FE000BFBC
:104F5000DCF8081041F0270121F0500157E000BFB4
:104F6000DCF8081041F0370121F040014FE000BFAC
:104F7000D1E901E3C968DCF8082043EA0E0322F412
:104F80007F4243EA01211143CCF80810DCF80810F5
:104F900041F077013BE000BFD1E901E3C968DCF8EB
:104FA000082043EA0E0322F47F4243EA0121114321
:104FB000CCF80810DCF8081041F4804127E000BF6D
:104FC000DCF8081041F0070121F070011FE000BF7C
:104FD000D1F804E0C968DCF82030DCF8202022F0A9
:104FE0000102CCF82020DCF8182022F0F00242EA7E
:104FF000011123F00A0242EA0E02CCF81810CCF894
:105000002020DCF8081041F0570121F02001CCF8F5
:1050100008100121002280F8391080F83820BDE8FE
:1050200080401046704700007047000010B50168CE
:1050300004460869800744BFC8685FEA807039D4B5
:105040000869400744BFC8685FEA40703ED40869F9
:10505000000744BFC8685FEA007045D40869C0060D
:1050600044BFC8685FEAC0604AD40869C0071CBF73
:10507000C8685FEAC07051D10869000644BFC868BB
:105080005FEA006052D40869400644BFC8685FEA1E
:10509000406053D40869800646BFC8685FEA8060F4
:1050A00010BD6FF0200220460A61BDE81040FFF7F6
:1050B00047BE00BF6FF002000861012020768869BA
:1050C000800743D02046FFF7AFFF45E06FF00400B4
:1050D000086102202076886910F4407F40D0204685
:1050E000FFF7A2FF42E000BF6FF008000861042054
:1050F0002076C86980073DD02046FFF795FF3FE046
:105100006FF01000086108202076C86910F4407F15
:105110003AD02046FFF788FF3CE000BF6FF0010067
:105120000861204600F03EF82168A5E76FF0800096
:1051300008612046FFF702FE2168A4E76FF04000F7
:105140000861204600F030F82168A3E7204600F00F
:1051500025F8204600F024F82168002020766FE72B
:10516000204600F01BF8204600F01AF821680020C5
:1051700020766CE7204600F011F8204600F010F889
:1051800021680020207669E7204600F007F82046D5
:1051900000F006F821680020207666E770470000DE
:1051A0007047000070470000704700007047000023
:1051B000B0B5054600680168C368446901F02F0274
:1051C000202A03F0200213D192B195F83A10222937
:1051D00040F01081A968B1F5805F41D12A69A96AC0
:1051E0004068002A64D0C0B221F8010B64E000BF1F
:1051F0005FEA017C1EBF04F0010E03F4907414EB0F
:105200000E0439D10A0617D513F0800214D095F890
:105210003910212940F0EE80AA68296AB2F5805F32
:1052200032D10A886FF35F2242602A69002A14BFD4
:105230000131023129622BE0490640F1DB8013F095
:10524000400108BFB0BDC16821F04001C16020210C
:10525000284685F83910BDE8B04000F0F5BA00BF27
:10526000296940680029A96A18BF00F07F004A1C1C
:10527000AA62087021E000BFCC0718BF13F4807346
:1052800032D14B0736D43CE04A1C2A62097841608F
:10529000E98C01390A04E98440F0AC80C16821F04E
:1052A0008001C160C16841F04001C160B0BD00BF74
:1052B0006FF35F2021F8020BA962E88D0138010429
:1052C000E88540F097802868C16821F49071C1603A
:1052D000416921F0010141612021284685F83A10F9
:1052E000BDE8B04000F0EAB9EB6B43F00103EB63BB
:1052F0004B0706D5BEF1000F03D0EB6B43F0020362
:10530000EB638B0706D5BEF1000F03D0EB6B43F0C8
:105310000403EB63BCF1000F06D5BEF1000F03D010
:10532000EB6B43F00803EB63EB6B002B62D0890659
:1053300036D5AAB395F83A10222931D1A968B1F52A
:10534000805F07D12A69A96A40687AB1C0B221F8A2
:10535000010B0FE0296940680029A96A18BF00F015
:105360007F004A1CAA62087005E000BF6FF35F204F
:1053700021F8020BA962E88D411EE985286809041D
:105380000ED1C16821F49071C160416921F0010121
:105390004161202085F83A00284600F08FF92868FE
:1053A0004169EA6B01F0400102F00802891823D03C
:1053B000C16821F49071C160416921F0010141612E
:1053C000202185F83A10416949061BD5416921F031
:1053D00040014161686BA8B148F65561C0F6000113
:1053E0000165FDF7C3FD28B1686B016DBDE8B040F4
:1053F000084700BFB0BD00BF2846FFF7D7FE00201A
:10540000E863B0BD2846BDE8B040FFF7CFBE00005E
:10541000002804BF0120704710B5044690F83900F9
:1054200028B9002084F83800204600F021F8242014
:1054300084F839002068C16821F40051C160204619
:1054400003F00EFD2068016921F49041016141697A
:1054500021F02A014161C16841F40051C16000207E
:105460002021E06384F8391084F83A1010BD000060
:105470002DE9F04786B00446016844F60000C4F206
:105480000000814202D006B0BDE8F087002643F656
:1054900030010196C4F202010A6946F2280842F47A
:1054A00080220A610A6900F5DE3002F4802201924E
:1054B000019A01960A68C4F2020842F002020A60E8
:1054C000096801F00201019101994FF440610191D5
:1054D00002210291012103910321049107210591E9
:1054E00001A9FDF7FBFE41F63815C2F200054FF0A9
:1054F00000674FF4806A4FF480792846C5E9008739
:10550000C5E90266C5E904A6C5E90669C5E90866F4
:10551000FDF71EFE002818BFFDF7BCF96563AC63FC
:1055200041F6981508F13000C2F200054021C5E9A6
:10553000000705F1080080E842042846C5E9056631
:10554000C5E907966E62FDF703FE002818BFFDF758
:10555000A1F92720002100222563AC63FEF70EF895
:105560002720FDF7FDFF06B0BDE8F0872DE9F043E9
:1055700081B0044690F83A0020280DD10E4600294B
:105580004FF0010000F096801746002A00F092804C
:1055900094F83800012803D1022001B0BDE8F0835F
:1055A000012084F838004FF0000822201D46C4F87E
:1055B0003C8084F83A00FDF763FFA785E785E18D1D
:1055C000002971D0074605F101090AE02169406808
:1055D000002918BF00F07F0006F8010BE08D0028BD
:1055E00062D0E08D0138E0852068A2680168B2F5DC
:1055F000805F19D189060FD4B9F1000F24D0002D96
:1056000044D000BFFDF73CFFC11B2068A9423DD834
:1056100001688906F6D500BF2169406881B3C0B230
:1056200026F8010BDAE700BF8906CFD4B9F1000FE5
:1056300018D05DB3FDF724FFC11B2068A94225D80F
:1056400001688906F6D5C1E701688906E4D40168D6
:1056500089065CBF01685FEA8161DDD40168890663
:10566000F2D5D9E701688906B0D4016889065CBF24
:1056700001685FEA8161A9D401688906F2D5A5E7CE
:105680006FF35F2026F8020BA8E700BFC16821F482
:10569000D071C160416921F001014161202084F88D
:1056A0003900032001E000BF0020202184F83A10D7
:1056B00084F8388001B0BDE8F08300007047000036
:1056C0002DE9F041044690F8390020280ED10F460C
:1056D00000294FF0010000F0B4801646002A08BFF0
:1056E000BDE8F08194F83800012803D10220BDE81C
:1056F000F08100BF012084F838000020E063212001
:105700001D4684F83900FDF7BBFEA684E684E18CD3
:105710000646002960D005F1010805E017F8011BD5
:105720004160E18C002958D0E08C0138E084206889
:10573000A1680268B1F5805F4FEA02611ED10029BD
:105740000ED4B8F1000F2BD0002D69D0FDF798FED4
:10575000811B2068A94263D801680906F6D500BFFD
:1057600039886FF35F2141602169002914BF013737
:105770000237E18C0029D7D12FE000BF0029CDD41A
:10578000B8F1000F1AD0002D4AD000BFFDF778FE07
:10579000811B2068A94243D801680906F6D5BDE7F8
:1057A00001680906DCD4016809065CBF01685FEA8C
:1057B0000161D5D401680906F2D5D1E7016809066F
:1057C000ACD4016809065CBF01685FEA0161A5D439
:1057D00001680906F2D5A1E72068016849061AD4D4
:1057E000F5B1691C0ED10168490614D40168490657
:1057F0005CBF01685FEA41610DD401684906F2D5DA
:1058000009E000BFFDF73CFE811B2068A94207D8D4
:1058100000684006F6D5202084F8390000200DE00D
:10582000C16821F4D071C160416921F00101416179
:10583000202084F8390084F83A000320002184F8FD
:105840003810BDE8F081000070470000FEE700005E
:105850002DE9F04F83B043F25D2002274FF47845E5
:10586000C0F60100002100224FF6FF73CDE900577A
:105870004FF6FF7401F006FAE8A0142114224FF449
:105880007843CDE9004701F0FDF943F2DB20C0F693
:105890000100142128224FF47843CDE9004701F09C
:1058A000F1F943F2B420C0F6010014213C224FF478
:1058B0007843CDE9004701F0E5F943F2E520C0F671
:1058C0000100142150224FF47843CDE9004701F044
:1058D000D9F943F23F20C0F60100002164224FF6BF
:1058E000FF73CDE9005701F0CDF9CFA00021782258
:1058F0004FF47843CDE9004701F0C4F9CEA0002170
:105900008C224FF47843CDE9004701F0BBF9CCA0DD
:105910000021A0224FF47843CDE9004701F0B2F90D
:10592000C9A00021B4224FF47843CDE9004701F02B
:10593000A9F9C7A00021C8224FF47843CDE9004758
:1059400001F0A0F9C4A00021DC224FF47843CDE996
:10595000004701F097F9C2A0A02178224FF47843C4
:10596000CDE9004701F08EF9C1A0A0218C224FF4AF
:105970007843CDE9004701F085F9BFA0A021A0221E
:105980004FF47843CDE9004701F07CF9BCA0A02199
:10599000B4224FF47843CDE9004701F073F9BAA07F
:1059A000A021C8224FF47843CDE9004701F06AF9FD
:1059B000B7A0A021DC224FF47843CDE9004701F0E5
:1059C00061F941F23860C2F20000806AFBF726FB01
:1059D00041F2D019C2F2000902460B46AEA1484678
:1059E00003F03EFE4846872114224FF6FF7300263F
:1059F000CDE9006701F046F940F22004C2F200044C
:105A00006069FBF70BFB40F2D8350B46C2F200058C
:105A100043F289210246C0F60101284603F020FE28
:105A20002846872128224FF6FF73CDE900674FF003
:105A3000000A01F027F92069FBF7F0FA40F650560A
:105A4000C2F2000602460B4697A1304603F008FE5C
:105A5000304687213C224FF6FF73CDE900A701F0C5
:105A600011F9E069FBF7DAFA40F23C46C2F20006AF
:105A700002460B4690A1304603F0F2FD30468721E6
:105A800050224FF6FF73CDE900A701F0FBF840F676
:105A9000D074C2F2000494ED020B43F2C928C0F6A0
:105AA000010853EC102B4846414603F0D9FD484607
:105AB00032218C224FF6FF73CDE900A701F0E2F806
:105AC00040F2603BC2F2000BDBF80400FBF7A6FAE1
:105AD00043F2D226C0F6010602460B46284631465E
